{
  "contractName": "Splitter",
  "abi": [
    {
      "constant": false,
      "inputs": [
        {
          "name": "_address1",
          "type": "address"
        },
        {
          "name": "_address2",
          "type": "address"
        }
      ],
      "name": "sendSplitFunds",
      "outputs": [
        {
          "name": "",
          "type": "bool"
        }
      ],
      "payable": true,
      "stateMutability": "payable",
      "type": "function"
    },
    {
      "constant": false,
      "inputs": [],
      "name": "stopContract",
      "outputs": [
        {
          "name": "_success",
          "type": "bool"
        }
      ],
      "payable": false,
      "stateMutability": "nonpayable",
      "type": "function"
    },
    {
      "constant": true,
      "inputs": [],
      "name": "getInfoContractFunds",
      "outputs": [
        {
          "name": "_contractFunds",
          "type": "uint256"
        }
      ],
      "payable": false,
      "stateMutability": "view",
      "type": "function"
    },
    {
      "constant": true,
      "inputs": [
        {
          "name": "_depositor",
          "type": "address"
        }
      ],
      "name": "isDepositor",
      "outputs": [
        {
          "name": "_isIndeed",
          "type": "bool"
        }
      ],
      "payable": false,
      "stateMutability": "view",
      "type": "function"
    },
    {
      "constant": true,
      "inputs": [],
      "name": "isStopped",
      "outputs": [
        {
          "name": "_stop",
          "type": "bool"
        }
      ],
      "payable": false,
      "stateMutability": "view",
      "type": "function"
    },
    {
      "constant": true,
      "inputs": [],
      "name": "newHashTicket",
      "outputs": [
        {
          "name": "_hashTicket",
          "type": "bytes32"
        }
      ],
      "payable": false,
      "stateMutability": "view",
      "type": "function"
    },
    {
      "constant": false,
      "inputs": [],
      "name": "depositFundsToSplitter",
      "outputs": [
        {
          "name": "",
          "type": "bool"
        }
      ],
      "payable": true,
      "stateMutability": "payable",
      "type": "function"
    },
    {
      "constant": true,
      "inputs": [],
      "name": "getInfoNewOwner",
      "outputs": [
        {
          "name": "_newOwner",
          "type": "address"
        }
      ],
      "payable": false,
      "stateMutability": "view",
      "type": "function"
    },
    {
      "constant": true,
      "inputs": [],
      "name": "getInfoOwner",
      "outputs": [
        {
          "name": "_owner",
          "type": "address"
        }
      ],
      "payable": false,
      "stateMutability": "view",
      "type": "function"
    },
    {
      "constant": true,
      "inputs": [
        {
          "name": "_hashTicket",
          "type": "bytes32"
        }
      ],
      "name": "getInfoDeposit",
      "outputs": [
        {
          "name": "_depositor",
          "type": "address"
        },
        {
          "name": "_amount",
          "type": "uint256"
        }
      ],
      "payable": false,
      "stateMutability": "view",
      "type": "function"
    },
    {
      "constant": false,
      "inputs": [
        {
          "name": "_hashTicket",
          "type": "bytes32"
        }
      ],
      "name": "emergencyWithdrawal",
      "outputs": [
        {
          "name": "_success",
          "type": "bool"
        }
      ],
      "payable": false,
      "stateMutability": "nonpayable",
      "type": "function"
    },
    {
      "constant": true,
      "inputs": [],
      "name": "getInfoContractCommissions",
      "outputs": [
        {
          "name": "_contractCommissions",
          "type": "uint256"
        }
      ],
      "payable": false,
      "stateMutability": "view",
      "type": "function"
    },
    {
      "constant": true,
      "inputs": [],
      "name": "carol",
      "outputs": [
        {
          "name": "",
          "type": "address"
        }
      ],
      "payable": false,
      "stateMutability": "view",
      "type": "function"
    },
    {
      "constant": false,
      "inputs": [
        {
          "name": "_newOwner",
          "type": "address"
        }
      ],
      "name": "changeOwner",
      "outputs": [
        {
          "name": "_success",
          "type": "bool"
        }
      ],
      "payable": false,
      "stateMutability": "nonpayable",
      "type": "function"
    },
    {
      "constant": true,
      "inputs": [],
      "name": "bob",
      "outputs": [
        {
          "name": "",
          "type": "address"
        }
      ],
      "payable": false,
      "stateMutability": "view",
      "type": "function"
    },
    {
      "constant": false,
      "inputs": [],
      "name": "resumeContract",
      "outputs": [
        {
          "name": "_success",
          "type": "bool"
        }
      ],
      "payable": false,
      "stateMutability": "nonpayable",
      "type": "function"
    },
    {
      "constant": true,
      "inputs": [
        {
          "name": "_hashTicket",
          "type": "bytes32"
        }
      ],
      "name": "getInfoCommission",
      "outputs": [
        {
          "name": "_commissionAmount",
          "type": "uint256"
        }
      ],
      "payable": false,
      "stateMutability": "view",
      "type": "function"
    },
    {
      "constant": false,
      "inputs": [],
      "name": "confirmChangeOwner",
      "outputs": [
        {
          "name": "_success",
          "type": "bool"
        }
      ],
      "payable": false,
      "stateMutability": "nonpayable",
      "type": "function"
    },
    {
      "constant": true,
      "inputs": [
        {
          "name": "_beneficiary",
          "type": "address"
        },
        {
          "name": "_password",
          "type": "bytes32"
        }
      ],
      "name": "newHashTicketTransfer",
      "outputs": [
        {
          "name": "_hashTicketTransfer",
          "type": "bytes32"
        }
      ],
      "payable": false,
      "stateMutability": "view",
      "type": "function"
    },
    {
      "constant": true,
      "inputs": [],
      "name": "alice",
      "outputs": [
        {
          "name": "",
          "type": "address"
        }
      ],
      "payable": false,
      "stateMutability": "view",
      "type": "function"
    },
    {
      "inputs": [
        {
          "name": "_alice",
          "type": "address"
        },
        {
          "name": "_bob",
          "type": "address"
        },
        {
          "name": "_carol",
          "type": "address"
        }
      ],
      "payable": false,
      "stateMutability": "nonpayable",
      "type": "constructor"
    },
    {
      "anonymous": false,
      "inputs": [
        {
          "indexed": false,
          "name": "_sender",
          "type": "address"
        },
        {
          "indexed": false,
          "name": "_alice",
          "type": "address"
        },
        {
          "indexed": false,
          "name": "_bob",
          "type": "address"
        },
        {
          "indexed": false,
          "name": "_carol",
          "type": "address"
        }
      ],
      "name": "LogSplitterNew",
      "type": "event"
    },
    {
      "anonymous": false,
      "inputs": [
        {
          "indexed": false,
          "name": "_sender",
          "type": "address"
        },
        {
          "indexed": false,
          "name": "_value",
          "type": "uint256"
        }
      ],
      "name": "LogSplitterDepositFundsToSplitter",
      "type": "event"
    },
    {
      "anonymous": false,
      "inputs": [
        {
          "indexed": false,
          "name": "_sender",
          "type": "address"
        },
        {
          "indexed": false,
          "name": "_value",
          "type": "uint256"
        },
        {
          "indexed": false,
          "name": "_address1",
          "type": "address"
        },
        {
          "indexed": false,
          "name": "_address2",
          "type": "address"
        }
      ],
      "name": "LogSplitterSendSplitFunds",
      "type": "event"
    },
    {
      "anonymous": false,
      "inputs": [
        {
          "indexed": false,
          "name": "_sender",
          "type": "address"
        }
      ],
      "name": "LogFundsManagerNew",
      "type": "event"
    },
    {
      "anonymous": false,
      "inputs": [
        {
          "indexed": false,
          "name": "_sender",
          "type": "address"
        },
        {
          "indexed": false,
          "name": "value",
          "type": "uint256"
        }
      ],
      "name": "LogFundsManagerDepositFunds",
      "type": "event"
    },
    {
      "anonymous": false,
      "inputs": [
        {
          "indexed": false,
          "name": "_sender",
          "type": "address"
        },
        {
          "indexed": false,
          "name": "_depositor",
          "type": "address"
        },
        {
          "indexed": false,
          "name": "_amount",
          "type": "uint256"
        }
      ],
      "name": "LogFundsManagerWithdrawFunds",
      "type": "event"
    },
    {
      "anonymous": false,
      "inputs": [
        {
          "indexed": false,
          "name": "_sender",
          "type": "address"
        },
        {
          "indexed": false,
          "name": "_origin",
          "type": "address"
        },
        {
          "indexed": false,
          "name": "_password",
          "type": "bytes32"
        }
      ],
      "name": "LogFundsManagerTransferFunds",
      "type": "event"
    },
    {
      "anonymous": false,
      "inputs": [
        {
          "indexed": false,
          "name": "_sender",
          "type": "address"
        },
        {
          "indexed": false,
          "name": "_hashTicket",
          "type": "bytes32"
        },
        {
          "indexed": false,
          "name": "_commissionAmount",
          "type": "uint256"
        }
      ],
      "name": "LogFundsManagerChargeCommission",
      "type": "event"
    },
    {
      "anonymous": false,
      "inputs": [
        {
          "indexed": false,
          "name": "_sender",
          "type": "address"
        },
        {
          "indexed": false,
          "name": "_hashTicket",
          "type": "bytes32"
        }
      ],
      "name": "LogFundsManagerRefundCommission",
      "type": "event"
    },
    {
      "anonymous": false,
      "inputs": [
        {
          "indexed": false,
          "name": "_sender",
          "type": "address"
        },
        {
          "indexed": false,
          "name": "_depositor",
          "type": "address"
        },
        {
          "indexed": false,
          "name": "_amount",
          "type": "uint256"
        }
      ],
      "name": "LogFundsManagerEmergencyWithdrawal",
      "type": "event"
    },
    {
      "anonymous": false,
      "inputs": [
        {
          "indexed": false,
          "name": "_sender",
          "type": "address"
        }
      ],
      "name": "LogStoppableNew",
      "type": "event"
    },
    {
      "anonymous": false,
      "inputs": [
        {
          "indexed": false,
          "name": "_sender",
          "type": "address"
        }
      ],
      "name": "LogStoppableStopContract",
      "type": "event"
    },
    {
      "anonymous": false,
      "inputs": [
        {
          "indexed": false,
          "name": "_sender",
          "type": "address"
        }
      ],
      "name": "LogStoppableResumeContract",
      "type": "event"
    },
    {
      "anonymous": false,
      "inputs": [
        {
          "indexed": false,
          "name": "_sender",
          "type": "address"
        }
      ],
      "name": "LogOwnedNew",
      "type": "event"
    },
    {
      "anonymous": false,
      "inputs": [
        {
          "indexed": false,
          "name": "_sender",
          "type": "address"
        },
        {
          "indexed": false,
          "name": "_newOwner",
          "type": "address"
        }
      ],
      "name": "LogOwnedChangeOwner",
      "type": "event"
    },
    {
      "anonymous": false,
      "inputs": [
        {
          "indexed": false,
          "name": "_sender",
          "type": "address"
        },
        {
          "indexed": false,
          "name": "_newOwner",
          "type": "address"
        }
      ],
      "name": "LogOwnedConfirmChangeOwner",
      "type": "event"
    }
  ],
  "bytecode": "0x6060604052341561000f57600080fd5b604051606080611a3f83398101604052808051906020019091908051906020019091908051906020019091905050336000806101000a81548173ffffffffffffffffffffffffffffffffffffffff021916908373ffffffffffffffffffffffffffffffffffffffff1602179055507f3452aa652f56729b39a9198f36cd36bee3117c0112792f8707bab75d357e66e533604051808273ffffffffffffffffffffffffffffffffffffffff1673ffffffffffffffffffffffffffffffffffffffff16815260200191505060405180910390a17f8cc00c1f028a34a0114cd2b3c9d9cb40bfaaf3412c080091c5ca0db70b09554f33604051808273ffffffffffffffffffffffffffffffffffffffff1673ffffffffffffffffffffffffffffffffffffffff16815260200191505060405180910390a17fa85d5744e943446e99dbbbf95efc481fe63c2fe3541566ee70c4d75b4c5e9f8933604051808273ffffffffffffffffffffffffffffffffffffffff1673ffffffffffffffffffffffffffffffffffffffff16815260200191505060405180910390a160008373ffffffffffffffffffffffffffffffffffffffff16141515156101cc57600080fd5b60008273ffffffffffffffffffffffffffffffffffffffff16141515156101f257600080fd5b60008173ffffffffffffffffffffffffffffffffffffffff161415151561021857600080fd5b82600760006101000a81548173ffffffffffffffffffffffffffffffffffffffff021916908373ffffffffffffffffffffffffffffffffffffffff16021790555081600860006101000a81548173ffffffffffffffffffffffffffffffffffffffff021916908373ffffffffffffffffffffffffffffffffffffffff16021790555080600960006101000a81548173ffffffffffffffffffffffffffffffffffffffff021916908373ffffffffffffffffffffffffffffffffffffffff1602179055507f61085776214940f6144a35759f94e5f118cdf5d0572b45df520841c02c39213233848484604051808573ffffffffffffffffffffffffffffffffffffffff1673ffffffffffffffffffffffffffffffffffffffff1681526020018473ffffffffffffffffffffffffffffffffffffffff1673ffffffffffffffffffffffffffffffffffffffff1681526020018373ffffffffffffffffffffffffffffffffffffffff1673ffffffffffffffffffffffffffffffffffffffff1681526020018273ffffffffffffffffffffffffffffffffffffffff1673ffffffffffffffffffffffffffffffffffffffff16815260200194505050505060405180910390a1505050611653806103ec6000396000f300606060405260043610610112576000357c0100000000000000000000000000000000000000000000000000000000900463ffffffff16806304767bb61461011757806312253a6c1461017c57806320ec9603146101a95780632f70d1ba146101d25780633f683b6a1461022357806340e864bf146102505780634776f8e714610281578063585230de146102a357806369d47ad6146102f857806369f7ca281461034d5780636fbec0cd146103bb5780638b5b1556146103fa5780638b930f1514610423578063a6f9dae114610478578063c09cec77146104c9578063c4bc5da51461051e578063d4977aec1461054b578063eae0438814610586578063f2db8767146105b3578063fb47e3a214610615575b600080fd5b610162600480803573ffffffffffffffffffffffffffffffffffffffff1690602001909190803573ffffffffffffffffffffffffffffffffffffffff1690602001909190505061066a565b604051808215151515815260200191505060405180910390f35b341561018757600080fd5b61018f61089f565b604051808215151515815260200191505060405180910390f35b34156101b457600080fd5b6101bc610980565b6040518082815260200191505060405180910390f35b34156101dd57600080fd5b610209600480803573ffffffffffffffffffffffffffffffffffffffff169060200190919050506109e5565b604051808215151515815260200191505060405180910390f35b341561022e57600080fd5b610236610a67565b604051808215151515815260200191505060405180910390f35b341561025b57600080fd5b610263610a7e565b60405180826000191660001916815260200191505060405180910390f35b610289610b1d565b604051808215151515815260200191505060405180910390f35b34156102ae57600080fd5b6102b6610d0a565b604051808273ffffffffffffffffffffffffffffffffffffffff1673ffffffffffffffffffffffffffffffffffffffff16815260200191505060405180910390f35b341561030357600080fd5b61030b610d34565b604051808273ffffffffffffffffffffffffffffffffffffffff1673ffffffffffffffffffffffffffffffffffffffff16815260200191505060405180910390f35b341561035857600080fd5b610372600480803560001916906020019091905050610d5d565b604051808373ffffffffffffffffffffffffffffffffffffffff1673ffffffffffffffffffffffffffffffffffffffff1681526020018281526020019250505060405180910390f35b34156103c657600080fd5b6103e0600480803560001916906020019091905050610dde565b604051808215151515815260200191505060405180910390f35b341561040557600080fd5b61040d611004565b6040518082815260200191505060405180910390f35b341561042e57600080fd5b610436611069565b604051808273ffffffffffffffffffffffffffffffffffffffff1673ffffffffffffffffffffffffffffffffffffffff16815260200191505060405180910390f35b341561048357600080fd5b6104af600480803573ffffffffffffffffffffffffffffffffffffffff1690602001909190505061108f565b604051808215151515815260200191505060405180910390f35b34156104d457600080fd5b6104dc6111f3565b604051808273ffffffffffffffffffffffffffffffffffffffff1673ffffffffffffffffffffffffffffffffffffffff16815260200191505060405180910390f35b341561052957600080fd5b610531611219565b604051808215151515815260200191505060405180910390f35b341561055657600080fd5b6105706004808035600019169060200190919050506112fb565b6040518082815260200191505060405180910390f35b341561059157600080fd5b610599611336565b604051808215151515815260200191505060405180910390f35b34156105be57600080fd5b6105f7600480803573ffffffffffffffffffffffffffffffffffffffff16906020019091908035600019169060200190919050506114db565b60405180826000191660001916815260200191505060405180910390f35b341561062057600080fd5b6106286114f0565b604051808273ffffffffffffffffffffffffffffffffffffffff1673ffffffffffffffffffffffffffffffffffffffff16815260200191505060405180910390f35b6000600160149054906101000a900460ff1615151561068857600080fd5b60003411151561069757600080fd5b60006002348115156106a557fe5b061415156106b257600080fd5b600073ffffffffffffffffffffffffffffffffffffffff168373ffffffffffffffffffffffffffffffffffffffff16141515156106ee57600080fd5b600073ffffffffffffffffffffffffffffffffffffffff168273ffffffffffffffffffffffffffffffffffffffff161415151561072a57600080fd5b8273ffffffffffffffffffffffffffffffffffffffff166108fc60023481151561075057fe5b049081150290604051600060405180830381858888f19350505050151561077657600080fd5b8173ffffffffffffffffffffffffffffffffffffffff166108fc60023481151561079c57fe5b049081150290604051600060405180830381858888f1935050505015156107c257600080fd5b7f2355d69eadc0ee83124dd2580c816c44f34b5b68a7491d639f3971af6f28fbaa33348585604051808573ffffffffffffffffffffffffffffffffffffffff1673ffffffffffffffffffffffffffffffffffffffff1681526020018481526020018373ffffffffffffffffffffffffffffffffffffffff1673ffffffffffffffffffffffffffffffffffffffff1681526020018273ffffffffffffffffffffffffffffffffffffffff1673ffffffffffffffffffffffffffffffffffffffff16815260200194505050505060405180910390a16001905092915050565b60008060009054906101000a900473ffffffffffffffffffffffffffffffffffffffff1673ffffffffffffffffffffffffffffffffffffffff163373ffffffffffffffffffffffffffffffffffffffff161415156108fc57600080fd5b60018060146101000a81548160ff0219169083151502179055507fdc5107df853e31da94e9c53d37f4d2b899e5fb7b6308111493accae88b2659aa33604051808273ffffffffffffffffffffffffffffffffffffffff1673ffffffffffffffffffffffffffffffffffffffff16815260200191505060405180910390a16001905090565b60008060009054906101000a900473ffffffffffffffffffffffffffffffffffffffff1673ffffffffffffffffffffffffffffffffffffffff163373ffffffffffffffffffffffffffffffffffffffff161415156109dd57600080fd5b600254905090565b6000808273ffffffffffffffffffffffffffffffffffffffff1614151515610a0c57600080fd5b6000600560008473ffffffffffffffffffffffffffffffffffffffff1673ffffffffffffffffffffffffffffffffffffffff168152602001908152602001600020541115610a5d5760019050610a62565b600090505b919050565b6000600160149054906101000a900460ff16905090565b600033600560003373ffffffffffffffffffffffffffffffffffffffff1673ffffffffffffffffffffffffffffffffffffffff16815260200190815260200160002054604051808373ffffffffffffffffffffffffffffffffffffffff1673ffffffffffffffffffffffffffffffffffffffff166c01000000000000000000000000028152601401828152602001925050506040518091039020905090565b6000600160149054906101000a900460ff16151515610b3b57600080fd5b600034111515610b4a57600080fd5b600760009054906101000a900473ffffffffffffffffffffffffffffffffffffffff1673ffffffffffffffffffffffffffffffffffffffff163373ffffffffffffffffffffffffffffffffffffffff161415610c98576000600234811515610bae57fe5b06141515610bbb57600080fd5b600860009054906101000a900473ffffffffffffffffffffffffffffffffffffffff1673ffffffffffffffffffffffffffffffffffffffff166108fc600234811515610c0357fe5b049081150290604051600060405180830381858888f193505050501515610c2957600080fd5b600960009054906101000a900473ffffffffffffffffffffffffffffffffffffffff1673ffffffffffffffffffffffffffffffffffffffff166108fc600234811515610c7157fe5b049081150290604051600060405180830381858888f193505050501515610c9757600080fd5b5b7f829b7c323cb599110dacc687425b77e31c6ed94c0df5d2f3fa0063910744251d3334604051808373ffffffffffffffffffffffffffffffffffffffff1673ffffffffffffffffffffffffffffffffffffffff1681526020018281526020019250505060405180910390a16001905090565b6000600160009054906101000a900473ffffffffffffffffffffffffffffffffffffffff16905090565b60008060009054906101000a900473ffffffffffffffffffffffffffffffffffffffff16905090565b6000806000600102836000191614151515610d7757600080fd5b60046000846000191660001916815260200190815260200160002060000160009054906101000a900473ffffffffffffffffffffffffffffffffffffffff166004600085600019166000191681526020019081526020016000206001015491509150915091565b60008060008060009054906101000a900473ffffffffffffffffffffffffffffffffffffffff1673ffffffffffffffffffffffffffffffffffffffff163373ffffffffffffffffffffffffffffffffffffffff16141515610e3e57600080fd5b600060046000866000191660001916815260200190815260200160002060010154111515610e6b57600080fd5b60046000856000191660001916815260200190815260200160002060000160009054906101000a900473ffffffffffffffffffffffffffffffffffffffff169150600460008560001916600019168152602001908152602001600020600101549050600460008560001916600019168152602001908152602001600020600080820160006101000a81549073ffffffffffffffffffffffffffffffffffffffff0219169055600182016000905550508173ffffffffffffffffffffffffffffffffffffffff166108fc829081150290604051600060405180830381858888f193505050501515610f5a57600080fd5b7f0e369096c949a851cefff9f53674d9c7df739919ba098cb807b94e254649285d338383604051808473ffffffffffffffffffffffffffffffffffffffff1673ffffffffffffffffffffffffffffffffffffffff1681526020018373ffffffffffffffffffffffffffffffffffffffff1673ffffffffffffffffffffffffffffffffffffffff168152602001828152602001935050505060405180910390a1600192505050919050565b60008060009054906101000a900473ffffffffffffffffffffffffffffffffffffffff1673ffffffffffffffffffffffffffffffffffffffff163373ffffffffffffffffffffffffffffffffffffffff1614151561106157600080fd5b600354905090565b600960009054906101000a900473ffffffffffffffffffffffffffffffffffffffff1681565b60008060009054906101000a900473ffffffffffffffffffffffffffffffffffffffff1673ffffffffffffffffffffffffffffffffffffffff163373ffffffffffffffffffffffffffffffffffffffff161415156110ec57600080fd5b60008273ffffffffffffffffffffffffffffffffffffffff161415151561111257600080fd5b81600160006101000a81548173ffffffffffffffffffffffffffffffffffffffff021916908373ffffffffffffffffffffffffffffffffffffffff1602179055507fae3fd6fbd4e7d8a4e53ecf89c51f72c00191a8d8d2c2fba3a5f4d9224996a6ae3383604051808373ffffffffffffffffffffffffffffffffffffffff1673ffffffffffffffffffffffffffffffffffffffff1681526020018273ffffffffffffffffffffffffffffffffffffffff1673ffffffffffffffffffffffffffffffffffffffff1681526020019250505060405180910390a160019050919050565b600860009054906101000a900473ffffffffffffffffffffffffffffffffffffffff1681565b60008060009054906101000a900473ffffffffffffffffffffffffffffffffffffffff1673ffffffffffffffffffffffffffffffffffffffff163373ffffffffffffffffffffffffffffffffffffffff1614151561127657600080fd5b6000600160146101000a81548160ff0219169083151502179055507fbe8d7a0d2974b6d29c6b0e1f7199c77822dd586b666191ba97458c086c3d2d6433604051808273ffffffffffffffffffffffffffffffffffffffff1673ffffffffffffffffffffffffffffffffffffffff16815260200191505060405180910390a16001905090565b60008060010282600019161415151561131357600080fd5b600660008360001916600019168152602001908152602001600020549050919050565b6000600160009054906101000a900473ffffffffffffffffffffffffffffffffffffffff1673ffffffffffffffffffffffffffffffffffffffff163373ffffffffffffffffffffffffffffffffffffffff1614151561139457600080fd5b600160009054906101000a900473ffffffffffffffffffffffffffffffffffffffff166000806101000a81548173ffffffffffffffffffffffffffffffffffffffff021916908373ffffffffffffffffffffffffffffffffffffffff160217905550600160006101000a81549073ffffffffffffffffffffffffffffffffffffffff02191690557f0d58bef243249903c29496d81a7ffbe3f394735e5ccd3e1dabbfec82c635c8d933600160009054906101000a900473ffffffffffffffffffffffffffffffffffffffff16604051808373ffffffffffffffffffffffffffffffffffffffff1673ffffffffffffffffffffffffffffffffffffffff1681526020018273ffffffffffffffffffffffffffffffffffffffff1673ffffffffffffffffffffffffffffffffffffffff1681526020019250505060405180910390a16001905090565b60006114e8338484611516565b905092915050565b600760009054906101000a900473ffffffffffffffffffffffffffffffffffffffff1681565b6000808473ffffffffffffffffffffffffffffffffffffffff161415151561153d57600080fd5b60008373ffffffffffffffffffffffffffffffffffffffff161415151561156357600080fd5b600060010282600019161415151561157a57600080fd5b338383604051808473ffffffffffffffffffffffffffffffffffffffff1673ffffffffffffffffffffffffffffffffffffffff166c010000000000000000000000000281526014018373ffffffffffffffffffffffffffffffffffffffff1673ffffffffffffffffffffffffffffffffffffffff166c01000000000000000000000000028152601401826000191660001916815260200193505050506040518091039020905093925050505600a165627a7a72305820d5f5c4b239c33a88e169bd89bb516026deba6fa20171363f067d8507751b6d050029",
  "source": "pragma solidity ^0.4.4;\n\n/*\n\nLast update: 2018-02-06\n Version: 2.1\n\nSplitter\nYou will create a smart contract named Splitter whereby:\n- there are 3 people: Alice, Bob and Carol\n- we can see the balance of the Splitter contract on the web page\n- whenever Alice sends ether to the contract, half of it goes to Bob and the other half to Carol\n- we can see the balances of Alice, Bob and Carol on the web page\n- we can send ether to it from the web page\n- It would be even better if you could team up with different people impersonating Alice, Bob and Carol, all cooperating on a test net.\n\nStretch goals:\n- add a kill switch to the whole contract\n- make the contract a utility that can be used by David, Emma and anybody with an address to split Ether between any 2 other addresses of their own choice\n- cover potentially bad input data\n\nDo not:\n- split between more than 2 people\n\nCORE functions:\n- Constructor\n- depositFundsToSplitter\n- sendSplitFunds\n\n*/\n\nimport \"./_FundsManager.sol\";\n\ncontract Splitter is FundsManager {\n    // To see the balance of the Splitter contract from a web page: contractAddress.balance\n    // To see the balance of Alice, Bob or Carol: address.balance\n    // To send ether to the contract: depositFundsToSplitter.sendTransaction(...)\n    // Kill switch implemented in the Stoppable super contract\n\n    address public alice;\n    address public bob;\n    address public carol;\n\n        event LogSplitterNew (address _sender, address _alice, address _bob, address _carol);\n    // Constructor\n    function Splitter(address _alice, address _bob, address _carol)\n        public \n    {\n        require(_alice != 0);\n        require(_bob != 0);\n        require(_carol != 0);\n\n        alice = _alice;\n        bob = _bob;\n        carol = _carol;\n\n        LogSplitterNew (msg.sender, _alice, _bob, _carol);\n    }\n\n// CORE functions\n\n        event LogSplitterDepositFundsToSplitter (address _sender, uint _value);\n        //If Alice is using this function the funds will be split half to Bob and the other half to Carol\n    function depositFundsToSplitter ()\n        onlyIfRunning \n        public \n        payable \n        returns (bool) \n    {\n        require(msg.value > 0); //avoid 0 value transfers\n\n        if (msg.sender == alice) { //if sender is Alice then the funds are split between Bob and Carol, else funds go to the contract\n            require (msg.value % 2 == 0); //Divisible\n            bob.transfer(msg.value/2);\n            carol.transfer(msg.value/2);\n        }\n\n        LogSplitterDepositFundsToSplitter (msg.sender, msg.value);\n        return true;\n    }\n\n        event LogSplitterSendSplitFunds (address _sender, uint _value, address _address1, address _address2);\n        //Anybody can use this function to split funds between two given addresses\n    function sendSplitFunds (address _address1, address _address2) \n        onlyIfRunning\n        public \n        payable \n        returns (bool) \n    {\n        require(msg.value > 0); //avoid 0 value transfers\n\n        require(msg.value % 2 == 0); //Divisible\n        require(_address1 != address(0));\n        require(_address2 != address(0));\n\n        _address1.transfer (msg.value / 2);\n        _address2.transfer (msg.value / 2);\n        \n        LogSplitterSendSplitFunds (msg.sender, msg.value, _address1, _address2);\n        return true;\n    }\n}\n",
  "sourcePath": "/home/jordi/b9/Unit4/SP_Splitter/contracts/Splitter.sol",
  "compiler": {
    "name": "solc",
    "version": "0.4.18+commit.9cf6e910.Emscripten.clang"
  },
  "schemaVersion": "1.0.1",
  "updatedAt": "2018-02-06T10:49:44.508Z"
}